:020000040800F2
:10000000A8080020550100085B2B0008551B0008BC
:1000100000000000000000000000000000000000E0
:100020000000000000000000000000005F2B00083E
:1000300000000000000000005D2B0008612B00089C
:100040006701000800000000670100086701000860
:1000500067010008670100086701000867010008E0
:100060000000000067010008670100086701000840
:1000700067010008670100082F2C0008000000003D
:10008000452C00080000000000000000DB2B0008E9
:1000900000000000032C0008192C0008571B000862
:1000A0000000000067010008000000006701000870
:1000B00000F002F800F03EF80CA030C80838241810
:1000C0002D18A246671EAB4654465D46AC4201D190
:1000D00000F030F87E460F3E0FCCB6460126334284
:1000E00000D0FB1AA246AB4633431847B434000095
:1000F000D4340000103A02D378C878C1FAD8520735
:1001000001D330C830C101D504680C6070470000CD
:100110000023002400250026103A01D378C1FBD823
:10012000520700D330C100D50B6070471FB51FBD0B
:1001300010B510BD00F07BF91146FFF7F7FF03F093
:1001400006F900F093F903B4FFF7F2FF03BC00F0E7
:1001500099F900000748804707480047FEE7FEE797
:10016000FEE7FEE7FEE7FEE704480549054A064BC1
:1001700070470000D92B0008B1000008A802002039
:10018000A8080020A8040020A8040020FEB5054609
:1001900010460C46184373D0AE468C460020AD1A6C
:1001A00001469C4167D36646002701243D46B61AA6
:1001B0009D4102D313463A462124654676462F04D4
:1001C000360C3E432D0CB61A9D4104D3150C1B046E
:1001D0002B4312041034654676462F06360A3E43FA
:1001E0002D0AB61A9D4104D3150E1B022B43120291
:1001F0000834654676462F0736093E432D09B61A60
:100200009D4104D3150F1B012B431201241D65468C
:100210007646AF07B6083E43AD08B61A9D4104D3F3
:10022000950F9B002B439200A41C65467646EF0772
:1002300076083E436D08B61A9D411AD392185B4169
:10024000641C16E00018764665464941B71A9D4180
:100250000191009009D36046B11A98418E468446B8
:10026000009801990025401C6941DD0752082A4386
:100270005B08641EE6D57246634603B0F0BDFFE737
:1002800000200146C046C0462A462346F5E701E065
:1002900004C0091F0429FBD28B0701D50280801CF2
:1002A000C90700D00270704700290BD0C30702D0E5
:1002B0000270401C491E022904D3830702D5028024
:1002C000801C891EE3E70022EEE70022DFE7002220
:1002D00003098B422CD3030A8B4211D300239C4683
:1002E0004EE003460B433CD4002243088B4231D3FB
:1002F00003098B421CD3030A8B4201D394463FE08F
:10030000C3098B4201D3CB01C01A524183098B42EE
:1003100001D38B01C01A524143098B4201D34B01D7
:10032000C01A524103098B4201D30B01C01A52413A
:10033000C3088B4201D3CB00C01A524183088B42C1
:1003400001D38B00C01A524143088B4201D34B00AA
:10035000C01A5241411A00D201465241104670471C
:100360005DE0CA0F00D04942031000D34042534021
:1003700000229C4603098B422DD3030A8B4212D3E1
:10038000FC22890112BA030A8B420CD38901921113
:100390008B4208D3890192118B4204D389013AD050
:1003A000921100E08909C3098B4201D3CB01C01A25
:1003B000524183098B4201D38B01C01A5241430938
:1003C0008B4201D34B01C01A524103098B4201D326
:1003D0000B01C01A5241C3088B4201D3CB00C01A93
:1003E000524183088B4201D38B00C01A5241D9D2AB
:1003F00043088B4201D34B00C01A5241411A00D22C
:100400000146634652415B10104601D34042002B27
:1004100000D54942704763465B1000D3404201B5A6
:100420000020C046C04602BD704770477047754601
:1004300000F024F8AE46050069465346C008C000E7
:10044000854618B020B5FFF78FFE60BC002749082D
:10045000B6460026C0C5C0C5C0C5C0C5C0C5C0C55C
:10046000C0C5C0C5403D49008D46704710B5044623
:10047000C046C0462046FFF766FE10BD00487047E4
:100480004402002001491820ABBEFEE7260002000E
:10049000704772B6FEE7F8B5002504462034009593
:1004A000227D012A3BD00122227503689E687607CF
:1004B0007ED410273F024E680137BE425CD09E6A50
:1004C0000F78BA4016439E620123C26A1B079A4204
:1004D0001FD0012A1DD0022A1BD0032A19D0042ABA
:1004E00017D0052A15D0062A13D0072A11D0026882
:1004F0008B6856697607760FB3420AD05369DB08DA
:10050000DB005361006842690B7A5B075B0F1A439B
:1005100042610A68102A04D0112A02D04DE002205C
:10052000F8BD40200002013000022730000283683D
:10053000102A07D00122920513438360086810280F
:1005400003D03AE00122D205F6E70F210902423139
:100550000902403120200002003000020030000279
:1005600020300068FFF7B3FE0A21484300E0401E38
:1005700000900028FBD120E0986A0E78B2409043AA
:1005800098620968102901D0112916D14020000273
:1005900001300002273000028268102905D00121B5
:1005A00089058A43826008E002E00121C905F8E775
:1005B000816B20221143816301250020207528468C
:1005C000F8BDF8B500250446002805D0A06B2646E6
:1005D0002036002802D007E00120F8BD0020E063AB
:1005E0003075204600F0ACF8A06B1022C006002841
:1005F00074DB20688168490770D4A16B13019943AB
:1006000002231943A16381688907890F012905D154
:100610000168C9070FD1C16809040CD4C168182347
:100620009943A3681943C160206801696368890020
:100630008908194301612068C16801231B02FD3349
:100640001B02E6339943C160207E617E8003C903AB
:100650000843A17E4B031843A36A012B02D0012358
:100660001B0300E000231843E36818432369022BAF
:1006700009D0002318433379E67E5B001843012339
:10068000012E02D00AE00423F4E7002927D0A16B51
:1006900020263143A163E16B1943E163E1690E4612
:1006A000FF3EC23E02D0266A314308432168CE682D
:1006B0000643CE600126E16A3607B14213D0012914
:1006C00011D002290FD003290DD004290BD0052900
:1006D00009D0062907D0072905D010E02CE0012118
:1006E00009040843DAE721684E69F608F6004E610E
:1006F00021684E69A78D7F077F0F3E434E612168B9
:10070000C9687C263602C03636041836B1438142A9
:1007100007D10020E063A06B80088000401CA0632C
:1007200008E0A06B022188431043A063E06B1843EC
:10073000E06301252846F8BDA06B1043A063F8E7ED
:1007400030B587B0044614216846FFF7BEFD40214E
:1007500009020131090224312068090288422ED1A0
:100760004020000202300002103000028269411570
:100770000A43826182690A400592426909020A437A
:10078000426142690A400592426949000A43426156
:1007900040690324084005903F2000256A4631C285
:1007A00009206946C00600F033F8482000040430F0
:1007B0000094694600020295019400F029F807B000
:1007C00030BD70B50024014620314A78022A03D09A
:1007D00004218163012416E0026813680E25AB43EF
:1007E0001360026813685B085B0013600122056CEC
:1007F0001346AB40C56B6B604A7000220A70416BB8
:10080000002900D08847204670BD203040787047CE
:10081000F8B5002303240125E5E02E469E40B446AA
:1008200032407DD00E79B607B60F012E01D0022ED0
:1008300017D186682746B6465E00B74000967646D2
:10084000BE43B646CF68009EB740764637438760C2
:1008500046686746BE430F79FF06FF0F9F40374348
:1008600047600E79F643B6070ED0C6682746B446F1
:100870005E00B646B7406646BE43B4468F687646CD
:10088000B74066463743C7600E79B607B60F022EEB
:1008900014D1DE08B60036180096366A5F07B446F3
:1008A000FE0E0F27B646B7406646BE43B4460F69F4
:1008B0007646B74066463743009E3762066827464D
:1008C000B4465E00B646B7406646BE430F79B446AE
:1008D000BF07BF0F7646B7406646374307604E688E
:1008E000B603B60F7ED040273F0202373F021037D3
:1008F0003F02BE692E43BE61BE699F08F607F60F30
:10090000402636020136BF003604BE190096B6688E
:100910000F27B4469E07360FB646B740664600E03E
:1009200060E0BE430927FF06B446B84201D1002764
:1009300018E048273F0404373F02B84201D101279D
:1009400010E048273F0408373F02B84201D1022790
:1009500008E048273F040C373F02B84201D1032783
:1009600000E005277646B74066463743009EB760ED
:10097000402636020136360204363602B6684F6823
:100980009643FF0200D5164340273F0201373F023E
:1009900004373F02BE60FE684F689643BF0200D531
:1009A000164340273F0201373F0204373F02FE60F3
:1009B0007E684F689643BF0300D5164340273F0229
:1009C00001373F0204373F027E603E684F6896431E
:1009D000FF0300D5164340221202013212020432F4
:1009E000120216605B1C0A681646DE4000D014E74F
:1009F000F8BD002A01D081617047816270472020D4
:100A0000000200300002003000021430806870479D
:100A100070B5024640325378202B1CD11378012B3D
:100A200019D00123137024245470046825689D4351
:100A30002560046825681E03B543256004682568A1
:100A40000D43256000680168194301602020507043
:100A50000020107070BD022070BD7047002908D1C1
:100A6000022020210902003109020031090200316F
:100A70000871704770B503689A691968D243D40544
:100A800008D4CC43240605D4446C01252C4344648B
:100A90002C02DC61530509D4CB431B0606D4436CFE
:100AA000082423434364E3010468E361920509D405
:100AB000C943090606D4416C022211434164110264
:100AC0000268D161416C0B22114201D001F033F96F
:100AD00070BD026891691268436B002B00D0184703
:100AE000704710B5014640314A78202A01D00220D3
:100AF00010BD28224A70082109020031090225315F
:100B00000902A53141630121C90301F07CF80020ED
:100B100010BD704770B5040006D025464035687892
:100B20000026002802D005E0012070BD2E7020466E
:100B300000F056F8242068702068016849084900D0
:100B400001600F21606809068843216808612168F7
:100B50008A680120C00382438A60E168012933D09A
:100B60002122A16892021143226891600121E2686A
:100B7000C902022A2BD0226853688B435360216834
:100B80004A6802231B0480331B021A434A6021680F
:100B9000CA688243CA60616920690843A169090281
:100BA00008432168C860216AE06908432168086039
:100BB000206801680122114301606664202068708A
:100BC0002663AE70002070BDA1680143CCE72268A7
:100BD00053680B43D2E770477047704770477047C0
:100BE00010B586B0044614216846FFF76EFB40211D
:100BF0000904543120680902884226D14024240285
:100C0000023424021034240261690120800401436B
:100C10006161616901400591C0200090122001903E
:100C2000002002900320039001200490482000043B
:100C3000043069460002FFF7EBFDE1690120400541
:100C40000143E161E1690140059106B010BD7047C3
:100C500070472020000200300002003000021430F3
:100C60008168027889188160704740200002023054
:100C7000000210B52030000201681022114301600B
:100C8000032000F004F800F02BF8002010BD70B530
:100C9000044620252D0200352D0200352D02143585
:100CA0007D202978C000FFF712FB014620200002BA
:100CB000003000020030000220300068FFF707FB20
:100CC00000F04BFB002809D1042C07D2002221465A
:100CD000401E00F027F800206C6070BD012070BD40
:100CE000402000020230000208B510300002816985
:100CF000012211438161816911400091C26901049F
:100D00000A43C261C0690840009008BD002808DBA2
:100D1000C106C90E01208840E0210904E131090221
:100D20000860704710B502F04DF910BDF8B54024C9
:100D3000240205460234006824021034C003240251
:100D400000285ADAE0690026C00007D4E1692004CF
:100D50000143E161E1690140012600914020000466
:100D6000703000020168C90513D40168821511436F
:100D70000160FFF744FE074604E0FFF740FEC01B9A
:100D8000642829D840200004703000020068C005A3
:100D9000F3D5206A03273F02384022D069683940E2
:100DA00081421ED0206A226AB843012109040A4305
:100DB0002262226A8A4322622062C00711D0FFF7B2
:100DC0001EFE00900AE0FFF71AFE0099411A132058
:100DD00000028830814201D90320F8BD206A8007D3
:100DE000F1D5206A6968B84308432062002E04D018
:100DF000E169012000078143E1612878C00705D03F
:100E0000206BA9688008800008432063287880064A
:100E100005D5206B10218843E96808432063002032
:100E2000F8BDF8B50F46060067D040252D02023503
:100E30002D0220352D022868C007C00FB84209D204
:100E4000286840084000384328602868C007C00F61
:100E5000B84252D1402424020234306824021034B3
:100E60008107240200290CDA400704D560680721B5
:100E70000902084360606068F0218843B168084354
:100E800060603078C00729D0706801280ED0022831
:100E90000FD02168890700292FDA61688908890045
:100EA00001436160FFF7ABFD009010E0216889030A
:100EB000F1E721688901EEE7FFF7A1FD0099411AEA
:100EC000132000028830814201D90320F8BD6068F8
:100ED0000C210840716889008842EDD12868C0075C
:100EE000C00FB8420BD9286840084000384328603A
:100EF0002868C007C00FB84201D00120F8BD307883
:100F0000400706D56068072109028843F168084355
:100F1000606000F019F861680906090F08221202E2
:100F200000321202353212029032515CC840202148
:100F30000902003109020031090220310860032052
:100F4000FFF7A5FE0020F8BD402212020232120275
:100F500010B51032120251680C200B4603407A2063
:100F6000000212300002042B25D0082B23D18B0263
:100F70001B0F082424020034240235342402703468
:100F8000E45CD26A1207120F08231B0200331B0213
:100F900035331B0280339A5CC90305D500231946FB
:100FA000FFF7F4F8214604E03D210902093120460B
:100FB000090201F0EFFF10BDFEB5040076D0402518
:100FC0002D02023520782D021035C0072D02002891
:100FD0004AD068680007800F012807D068680007BA
:100FE000800F022809D16868C00306D528688003ED
:100FF0003AD560680028E1D036E06168012914D054
:1010000001208004002901D0052914D02A6801217B
:1010100009048A432A60296881432960606800289E
:1010200016D0FFF7ECFC06460EE028680121090403
:1010300008432860F2E7296801432960F5E7FFF7D4
:10104000DEFC801B642870D828688003F7D50BE08D
:10105000FFF7D5FC064604E0FFF7D1FC801B6428AF
:10106000F1D828688003F7D420780126800700286B
:101070003DDA68680007800F07D068680007800FB6
:10108000022809D16868C00306D42868800716D5ED
:10109000E06801280AD112E0E068002817D028682B
:1010A00030432860FFF7ABFC074605E051E1FFF74E
:1010B000A6FCC01B0228C6D828688007F7D5286878
:1010C000F82188432169C900084328600FE0286897
:1010D000400840002860FFF792FC074604E0FFF755
:1010E0008EFCC01B0228AED828688007F7D4207871
:1010F000000723D5E06900280FD0686A3043686292
:10110000FFF77DFC074604E0FFF779FCC01B0228CF
:1011100099D8686A8007F7D510E0686A40084000EF
:101120006862FFF76CFC074605E0A4E0FFF767FC88
:10113000C01B022887D8686A8007F7D42078042764
:10114000400700286ADA00200190E869C00008D44E
:10115000E969B8060143E961E969014001200091AC
:10116000019040200004703000020168C90514D4C9
:101170000168821511430160FFF741FC009005E012
:10118000FFF73DFC0099401A642874D84020000401
:10119000703000020068C005F2D5A06801280AD0AE
:1011A000002801D0052810D0286A40084000286295
:1011B000286AB84301E0286A30432862A068002802
:1011C00014D0FFF71CFC00900CE0286A384328621A
:1011D000F1E7FFF714FC0099411A13200002883050
:1011E000814248D8286A8007F3D50FE0FFF707FC53
:1011F000009008E0FFF703FC0099411A1320000259
:101200008830814237D8286A8007F3D401980028B3
:1012100004D0E969012000078143E9612078C00614
:1012200036D5606901280CD0401D25D0686B384345
:101230006863686B400840006863FFF7E0FB0646A0
:1012400023E0686B38436863686B30436863FFF77B
:10125000D6FB064604E0FFF7D2FB801B02285DD8D0
:10126000686B8007F7D5686BF8218843A169C900CE
:10127000084368630CE051E0686BB8436863F2E7C9
:10128000FFF7BDFB801B022848D8686B8007F7D4A6
:10129000206A00285FD069680907890F022943D0B6
:1012A00001263606022806D02868B0432860FFF7DA
:1012B000A6FB044634E02868B0432860FFF79FFB94
:1012C000074604E0FFF79BFBC01B022826D82868CE
:1012D0008001F7D4E86AE16A000900010843E86286
:1012E000616AA06A084369683D2212049143084379
:1012F0006860286830432860FFF781FB044604E0FB
:10130000FFF77DFB001B022808D828688001F7D56D
:1013100021E0FFF774FB001B022801D90320FEBD6A
:1013200028688001F5D416E00128F8D06868E96AD9
:1013300001221204636A02409A420AD10907E26A52
:10134000090F914205D10F2189040840A16A884202
:1013500001D00120FEBD0020FEBDFF21090610B511
:101360000131401EC84201D9012010BDE0242404EF
:10137000E034240260610321081F01F023FE0020F5
:10138000A06107202061002010BD7047704730B574
:10139000034620331A7F012A26D001221A7703251B
:1013A000CA682D02AA438D6800242A430125AD0294
:1013B000AA434D6800682A430125ED02AA430D683F
:1013C0002A4301252D03AA430D692A4301256D03F4
:1013D000AA434D69C9692A430125AD03AA430A43BB
:1013E00042641C77002030BD022030BDF0B50246BB
:1013F0002032137F012B23D0012616770223537747
:1014000005686B68AC687027BB430F681F436F604B
:1014100040231B0201331B0200682C331B0298423D
:1014200005D040231B0404331B02984204D18023BF
:1014300049689C4321438160567700201077F0BDB6
:101440000220F0BD70B5040005D025462035687F28
:10145000002802D006E0012070BD00202877204639
:1014600000F014F802206877211D206801F0F5FBD8
:1014700001204034A071A877E87720706070A070D8
:10148000E070207160716877002070BD08B5016858
:1014900040224020120200020132023012020002F9
:1014A0002C3210301202000291420DD18269C11417
:1014B0000A438261806900220840009011460E2094
:1014C000FFF730FC0E2012E0402212040432120218
:1014D00091420FD1C26902210A43C261C069002250
:1014E0000840009011461020FFF71CFC1020FFF769
:1014F0000DFC08BD402212042032120291420DD18F
:10150000C26989150A43C261C0690022084000907F
:1015100011461320FFF706FC1320E8E740221202D1
:10152000013212024432120291420ED1826901212B
:1015300049040A43826180690022084000901146F4
:101540001520FFF7EFFB1520D1E7402212020132F0
:101550001202483212029142CBD1826901218904E0
:101560000A438261806900220840009011461620DB
:10157000FFF7D8FB1620BAE7014620314A7F012A3F
:1015800001D00120704702224A770268D368012106
:101590000B43D360402212020132120200682C3247
:1015A0001202904205D040221204043212029042EC
:1015B00004D182685207520F062A02D002680A43F9
:1015C000026000207047F8B5054604462035287FA4
:1015D0000026012817D0012028770220687722688A
:1015E00090687727FF23B8431B02984390600868F0
:1015F000502838D00EDC20284FD006DC00284CD0F4
:1016000010281ED149E00220F8BD302845D04028DE
:1016100017D13AE060282ED0702819D00122120389
:10162000801A0FD090420CD1CB684A688968206834
:1016300001F06EFB206881680122920311438160F2
:1016400000E0012601206877002028773046F8BDA9
:10165000CB684A688968206801F05AFB216888686D
:1016600038438860EEE7CA684968206801F06EFC7C
:101670005021206806E0CA684968206801F077FCBC
:101680006021206801F04FFBDCE7CA6849682068E8
:1016900001F05CFC40212068F4E722680146104616
:1016A000F0E77047F8B504460068C668056900278A
:1016B000A907002913DAB10711D5F91E016101202C
:1016C0002077206880698007204602D0FFF7E9FF75
:1016D00004E000F0E5F8204600F095F92777680768
:1016E00016D5700714D504202168C0430861022074
:1016F0002077206880698005800F204602D0FFF7A0
:10170000D0FF04E000F0CCF8204600F07CF9277709
:10171000280715D5300713D508202168C043086174
:10172000042020772068C0698007204602D0FFF798
:10173000B8FF04E000F0B4F8204600F064F9277721
:10174000E80616D5F00614D510202168C0430861BC
:10175000082020772068C0698005800F204602D0CD
:10176000FFF79FFF04E000F09BF8204600F04BF9E4
:101770002777E80708D0F00706D001202168C0438A
:101780000861204600F0E4F9280608D5300606D5A1
:1017900080202168C04308612046FFF7F6FD6806F7
:1017A00008D5700606D540202168C0430861204650
:1017B00000F0CFF9A80608D5B00606D5202021688C
:1017C000C04308612046FFF7E1FDF8BD70B586B063
:1017D000044614216846FEF778FD40264022360272
:1017E0001202013602323602120225682C361032FD
:1017F0000124092036020021120264040223C006DB
:10180000B5420DD155692543556152690291224077
:1018100005920F221202019304930092039112E0A9
:101820004026360404363602B5420FD155692543A9
:1018300055615269029122400592C0220391012113
:101840000193009204916946FEF7E2FF06B070BD75
:1018500070B5054620352B7F0024012B0ED00123C7
:101860002B77002A0CD0042A0ED0082A10D00C2A7C
:1018700012D0012400202877204670BD022070BDC0
:10188000006801F058FAF5E7006801F09EFAF1E708
:10189000006801F0DDFAEDE7006801F01EFBE9E702
:1018A000704770B5040005D025462035687F0028B4
:1018B00002D006E0012070BD00202877204600F00D
:1018C00014F802206877211D206801F0C6F9012074
:1018D0004034A071A877E87720706070A070E07045
:1018E000207160716877002070BD7047F8B50646BA
:1018F00004462036307F00270D4601280ED00120F7
:101900003077002A0CD0042A1BD0082A2FD00C2AAA
:101910003ED00127002030773846F8BD0220F8BDC0
:10192000206801F008FA206881690822114381616A
:101930002068826904218A438261206881692A695A
:1019400012E0206801F041FA206882690121C90291
:101950000A43826120688169012292029143816178
:10196000206881692A69120211438161D2E72068E7
:1019700001F06EFA2068C16908221143C161206834
:10198000C26904218A43C2612068C1692A6912E0E0
:10199000206801F0A2FA2068C1690122D202114335
:1019A000C1612068C269012189028A43C26120683D
:1019B000C1692A6912021143C161ABE770B5040025
:1019C00005D025462035687F002802D006E001209A
:1019D00070BD00202877204600F014F802206877B8
:1019E000211D206801F039F901204034A071A87749
:1019F000E87720706070A070E07020716071687787
:101A0000002070BD7047704710B504460222203098
:101A100000290AD004290DD02046403008290ED0D4
:101A20004378012B10D0012010BD837F012BFAD108
:101A300082770AE0C37F012BF5D1C27705E00378F6
:101A4000012BF0D1027000E042700122206801F009
:101A500052F940210902013109022C3120680902A2
:101A600088420FD040221202013212024432120286
:101A7000904207D040221202013212024832120272
:101A8000904204D1426C0123DB031A434264206874
:101A90000122884205D0402109040431090288420C
:101AA00004D181684907490F062902D00168114312
:101AB0000160002010BD70B504460D46006800228C
:101AC00001F019F940231B02013311221B021202FB
:101AD0002C33113220681B02911098420FD0402302
:101AE0001B0201331B0244331B02984207D04023E0
:101AF0001B0201331B0248331B0298420AD1036ABE
:101B0000134207D1036A0B4204D1436C0126F6034A
:101B1000B34343642068036A134206D1026A0A424F
:101B200003D10168490849000160204620300121A5
:101B3000002D07D0042D07D04034082D06D0617049
:101B4000002070BD8177FBE7C177F9E72170F7E7E7
:101B500070477047FEE710B52020000200300002F9
:101B6000003000026430006880694005400F09D0F1
:101B70002020000200300002003000026430FEF736
:101B800079FF10BD2020000200300002003000026A
:101B90006430FEF79EFF10BD10B5406A0021826BD5
:101BA000002A00D05163C26B002A00D0516300F0BC
:101BB000A1FD10BDF0B504460022CE074034282315
:101BC000B025002E05D0667842221F46B74300D0CC
:101BD000F2228E0705D5442664783243A34300D011
:101BE0002A43CB0B01D0B8231A43102908D020294F
:101BF00007D0402905D00068016891430160F0BD1D
:101C000090210A43F7E7F0B5002208273F0200378A
:101C10003F0222373F022537436BF224F4259026FA
:101C2000BB421FD008273F0200373F0224373F0244
:101C3000A337BB4216D008273F0200373F022337A5
:101C40003F024D37BB420DD0CB0B00D0B822CB07A3
:101C500000D022438B0700D52A43102912D0202917
:101C600013D013E0CB0B00D0B822CB0700D0224317
:101C70008B0700D52A43102904D0202904D04029FD
:101C800003D003E0324301E060210A4300680168A9
:101C900011430160F0BD01688A69D243920701D403
:101CA00000228A6200688169C943C90703D081693B
:101CB0000122114381617047F8B50546044640355D
:101CC0006878282181432068002904D00821C16157
:101CD00000202870F8BD8169C903CF0F8169FE23F8
:101CE0000E0C81681E408A05C168920D19408C4611
:101CF000E168022916D10621D3090E400B409E420D
:101D00000FD1A16C491CA164A16C0229E2D1002170
:101D1000A1640823C361297039462046FEF79EFE60
:101D2000F8BD66460121C9032046FFF743FF0020A6
:101D300028703246F0E7F8B5054604464035687825
:101D40000026AE70FF221202FF321204E2626685A4
:101D5000626C0A43626428283AD0292838D02A289D
:101D600036D08021090203312046FFF723FF2046A9
:101D7000FFF791FF6878602812D0202169702068F1
:101D80008269D24392060BD48269D243D20605D42B
:101D90001022C261606C0422104360642068C1613B
:101DA0006663206B08273F0200373F021B373F0264
:101DB0009937A16B002903D0112818D0212816D0FB
:101DC000E16B00292BD012282DD022282BD026E021
:101DD00003212046FFF7EEFE28206870082000024D
:101DE0000030000225300002A5306063D9E720688A
:101DF0000168490404D501680122920391430160FE
:101E0000A06BFEF702FD012809D0A06B47632E707E
:101E1000A06BFEF7D6FC002804D0A06B1AE0204689
:101E200000F068FCF8BD20680168090404D5016869
:101E30000122D20391430160E06BFEF7E6FC01282A
:101E4000EDD0E06B47632E70E06BFEF7BAFC002824
:101E5000E8D0E06B416B8847F8BD70B50446FF20C1
:101E60000002FF300004E0620025256320222046A6
:101E70004030064642708570C8436563400712D4FF
:101E80002068406A616A0870606A401C6062208D48
:101E9000002808D0401E2085608D401E6085606C43
:101EA0000421084360648021090203312046FFF7C2
:101EB00081FE21681020C86135702046FEF78BFE38
:101EC00070BDF8B50546009100682027C7612C4613
:101ED00040346078212803D06078222806D00BE0B7
:101EE00001212846FFF766FE112004E00221284662
:101EF000FFF760FE1220286328684168FE22120462
:101F0000E832120211404160FF2000260002FF303B
:101F100000046E63E8620098C043C10606D42A68D4
:101F20001021D161696C04221143696461786029D0
:101F300005D1400703D42868406AC0B20090284603
:101F4000FFF7A9FE686C6178602901D0002804D0F1
:101F5000696C2846FFF7EFFEF8BD607821280DD0A8
:101F600060782228F8D167702E63A078402816D0B8
:101F7000A67026702846FEF72FFEF8BD67702E6308
:101F8000A078402805D0A67026702846FEF725FECA
:101F9000F8BDA67026702846FEF721FEF8BDA67093
:101FA00026702846FEF71AFEF8BD70B500250646D5
:101FB00040360446B5707178202021290CD070700D
:101FC00012202063022120466563FFF7F3FD357080
:101FD0002046FEF701FE70BD7070112020630121C4
:101FE00020466563FFF7E6FD35702046FEF7F5FDF8
:101FF00070BDF8B50268044610680090E66A0F46A6
:102000002546403568782021D161212808D029282B
:1020100006D022280CD02A280AD0282810D017E071
:102020008021090201312046FFF7C4FD21200EE086
:102030008021090202312046FFF7BCFD222006E084
:102040008021090203312046FFF7B4FD0020206300
:10205000206841680122D203114341602068416831
:10206000FE221204E8321202114041602046FFF7BE
:1020700012FE0098C243500407D42068016801236F
:102080009B0399430160A06B08E010040BD4206807
:1020900001680123DB0399430160E06B002802D053
:1020A000006840686085F8434007042100280FDB82
:1020B00020688F43406A636A1870606A401C6062DF
:1020C000208D002804D0401E2085608D401E608534
:1020D000608D002802D0606C08436064F843C0063D
:1020E00014D4D00612D4628D1020002A20D0226889
:1020F000D061606C08436064002E03D001200006AC
:10210000864203D1616C2046FFF715FE0026AE70B3
:102110006663606C00282AD0616C2046FFF70BFED6
:102120006878282803D139462046FFF796FEF8BD87
:102130006978282908D1012149068E4204D13946FF
:102140002046FFF78AFEE1E7697829290CD10121B1
:102150000904CE4208D02168C8612046FFF79BFDE4
:10216000204600F02AF8D1E72168C861CEE7E06A8E
:10217000FF273F02FF373F04B8420BD0204600F054
:102180001CF8E7622020687026632E702046FEF758
:1021900022FDF8BD6878222807D0202068702663C9
:1021A0002E702046FEF754FDF8BD2020687026638F
:1021B0002E702046FEF74BFDF8BD70B50546006851
:1021C000016800262C464034A670C9434A0403D453
:1021D00001680122920304E0090404D40168012289
:1021E000D203914301606178282029290ED06178BB
:1021F0002A290AD160702220286302212846FFF78D
:10220000D9FC26702846FEF722FD70BD60702120A3
:10221000286301212846FFF7CDFC26702846FEF7EB
:1022200017FD70BDF8B505460446403528780128ED
:1022300017D00126CB43DF06D0432E70002F12DBD0
:10224000C20610D421681020C861606C04210843C4
:10225000606420212046FFF7D6FC2046FFF71BFDD7
:1022600071E00220F8BDFF221202FF321F061204A5
:10227000002F44DB470642D420680168402399437D
:102280000160608D002835D020684168638D890524
:10229000890DFF2B0BD98069000CC007C00F01D03E
:1022A000268501E0FF20208501231B0608E0608DC4
:1022B0002085E06A904201D0E36A01E001235B06D9
:1022C00000200090208DC2B2204600F0FAF9608D07
:1022D000218D401A60856878222806D02068016820
:1022E00001229203114301602DE020680168012260
:1022F000D203F7E720684068800119D506E05E0642
:102300001AD4460618D4608D002804D040212046F7
:10231000FFF711FD17E020684168890113D4E16AD5
:10232000914205D1416801229203114341600AE0C4
:102330002046FFF73AFE06E09A0604D4800602D44F
:102340002046FFF7BEFD00202870F8BDF8B58027B5
:10235000054604463F044035203728783F020128CF
:1023600017D00126C843C306D2432E70002B12DBC0
:10237000D30610D421681020C861606C0421084382
:10238000606420212046FFF73EFC2046FFF783FCD7
:1023900084E00220F8BD830708D4930706D4206D9B
:1023A000216888620020C043206577E003063CD4A2
:1023B00053063AD401212046FFF7FCFB10212046AA
:1023C000FFF721FC608D00282AD0608DFF281BD9E3
:1023D00020688069000CC007C00F01D0268501E08D
:1023E000FF2020850020009040E0204600F069F9A1
:1023F000608D218D401A60856878222809D0206878
:1024000001680122920308E0608D20850020009081
:1024100036E0206801680122D203114301603DE0EB
:1024200040212046FFF787FC38E043062FD45306AF
:102430002DD401212046FFF7BDFB10212046FFF7D8
:10244000E2FB6878222803D180273F0424373F022B
:10245000608DFF2811D920688069000CC007C00F6B
:1024600001D0268501E0FF2020850097208DC2B293
:10247000E06C012381B21B06B7E7608D20850097D1
:10248000208DC2B2E06C012381B25B06ADE780060D
:1024900004D4900602D42046FFF713FD00202870D4
:1024A000F8BDF8B5C36A9446044605464035287819
:1024B000002601280DD001202870CF436046BA06BF
:1024C000C043002A07DB820605D42046FFF791FDB2
:1024D00065E00220F8BDFA065AD4C20658D4470473
:1024E0001022002F01DA070431D4E76BBC46002F1D
:1024F00007D0070405D467463F687F68002F00D1E6
:102500000126A76B002F05D0400403D4386840682B
:10251000002801D0002E1DD06878282807D101207E
:102520004006834203D12046FFF797FC37E06878E6
:1025300029280CD101200004C34208D02068C261C0
:102540002046FFF7A8FB2046FFF737FE27E020686C
:10255000C26124E02068C261606C042108436064A9
:102560006878002B02D089058B4218D1212806D02B
:10257000292804D0222804D02A2802D003E02120D0
:1025800000E022202063616C2046FFF7D4FB06E0C8
:102590003A0704D4000702D42046FFF78DFB002041
:1025A0002870F8BDF8B50446C06A254640352B783A
:1025B000012B0CD001232B70CB439E06D243002E5F
:1025C00007DB960605D42046FFF713FD76E00220D0
:1025D000F8BD0126DF063606002F2FDBD7062DD4E7
:1025E000638D1022002B0ED02168CA61616C042219
:1025F00011436164002801D0B0425FD1616C204674
:10260000FFF799FB5AE06B78282B07D101235B0673
:10261000984203D12046FFF720FC4FE06978292932
:1026200009D101210904C84205D02068C2612046B1
:10263000FFF731FB3FE02068C2613FE05F0719D43C
:10264000570717D4618D00290CD02168496A626A46
:102650001170616A491C6162218D491E2185618D5D
:10266000491E6185618D002928D101210904C842D4
:1026700021D123E01F0705D4170703D42046FFF715
:102680001BFB1BE0990719D4910717D4618D002912
:102690000DD0606A216800788862606A401C6062C0
:1026A000608D401E6085208D401E208506E0B04272
:1026B00001D0002802D12046FFF77FFD00202870BE
:1026C000F8BD890510B5890D12041143029C194308
:1026D00002682143490050684908630D032424021D
:1026E000FF34240263342402FF3423439843084315
:1026F000506010BD10B5014640314B780022602B70
:1027000004D002630A70FEF704FA10BD20234B7058
:1027100002630A70FEF7A1F910BDFEB50446402021
:1027200000020025013000022430009501950002CE
:10273000029521C401260427201D2560E0C02574D0
:102740006574A574E574FF20C230A56160612577CA
:102750002662083C2046FDF734FF002801D0FDF733
:1027600098FE012000030190000402900095694644
:102770002046FDF790FE002801D0FDF78AFE69464D
:1027800020460096FDF787FE002801D0FDF781FE68
:102790000220009069462046FDF77DFE002801D00A
:1027A000FDF777FE0320009069462046FDF773FE93
:1027B000002801D0FDF76DFE694620460097FDF721
:1027C0006AFE002801D0FDF764FE052000906946EE
:1027D0002046FDF760FE002801D0FDF75AFE0820D4
:1027E000009069462046FDF756FE002801D0FDF70F
:1027F00050FE0920009069462046FDF74CFE002857
:1028000001D0FDF746FEFEBDF0B587B01421684645
:10281000FDF75BFD40200002023000021030000294
:102820004269012149040A43426142690A40059212
:10283000426949000A434261406948270840FF2530
:102840003F042D02043738353F0205900022294607
:102850003846FEF7CEF8012636030920002231461D
:10286000C006FEF7C6F80420009003200024019063
:10287000694602943846FDF7CBFF00950125029486
:102880006946384601950394FDF7C2FF092002947A
:102890006946C006009601950394FDF7B9FF07B09D
:1028A000F0BD10B504464020000454300002206002
:1028B00010200002023000020A3060600A20A0608E
:1028C0000120E060002020616061A061E061206281
:1028D0002046FEF71FF9002801D0FDF7DAFD01219F
:1028E00009032046FEF794F8002201211720FEF785
:1028F00019FA1720FEF70AFA10BD4021090410B595
:10290000203109020160102141600021B72212022A
:10291000816066320161C2608161FEF793FD00282B
:1029200001D0FDF7B6FD10BD4021090201310902B9
:1029300010B544310902016000214160FF2281602D
:1029400012020161FF324161C2608161FEF77AFDCE
:10295000002801D0FDF79DFD10BD40210902013185
:10296000090210B548310902016000214160FF22CF
:10297000816012020161FF324161C2608161FEF734
:1029800061FD002801D0FDF784FD10BD30B595B084
:10299000002405460F9410941194129413941C2152
:1029A00068461494FDF791FC202107A8FDF78DFCE3
:1029B00040200002013000022C30000211C52C60C2
:1029C000AC607D20EC6080012C616860083D284689
:1029D000FEF738FD002801D0FDF75BFD0120000364
:1029E0000F900FA92846FEF7EEFD002801D0FDF755
:1029F00050FD2846FEF7E2FF002801D0FDF749FD13
:102A00002846FEF74EFF002801D0FDF742FD139443
:102A100013A928461494FEF7E9FC002801D0FDF71D
:102A200038FD60200594019400900294039404946E
:102A30000022694606942846FEF758FF002801D078
:102A4000FDF727FD042269462846FEF74FFF0028C0
:102A500001D0FDF71EFD082269462846FEF746FF15
:102A6000002801D0FDF715FD0C2269462846009488
:102A7000FEF7EEFE002801D0FDF70BFD01200794C4
:102A8000400309940C9008940A940B9407A90E949F
:102A90002846FEF77CFC002801D0FDF7FAFC28460A
:102AA000FEF794FE15B030BD30B58DB0002405465C
:102AB0000794089409940A940B941C2168460C947A
:102AC000FDF703FC402000040430000211C52C6017
:102AD0007D20AC6080012C616860083D2846FEF7CF
:102AE000B1FC002801D0FDF7D4FC012000030790C1
:102AF00007A92846FEF767FD002801D0FDF7C9FCAD
:102B00002846FEF75BFF002801D0FDF7C2FC0B94BE
:102B10000BA928460C94FEF769FC002801D0FDF7AC
:102B2000B8FC60200090019402940022694604944D
:102B30002846FEF7DBFE002801D0FDF7AAFC0422A0
:102B400069462846FEF7D2FE002801D0FDF7A1FC19
:102B50002846FEF73BFE0DB030BDFEE770477047DC
:102B600010B5FEF776F810BD10B594B03021684668
:102B7000FDF7ABFB00240F94122000900D94012070
:102B80001294039005900E941020109413940C94BA
:102B900004900690119408946846FEF70DFA0028F8
:102BA00001D0FDF776FC07200C900D940E940021C7
:102BB0000F940CA8FEF735F9002801D0FDF769FC49
:102BC00020201090139410A8FEF7B0F8002801D030
:102BD000FDF75FFC14B010BD704710B50120202137
:102BE0000902003109020031090200310870202079
:102BF000000200300002013000024830FEF752FDB2
:102C000010BD10B52020000200300002013000028B
:102C10009030FEF747FD10BD10B5202000020030B7
:102C2000000201300002D830FEF73CFD10BD10B5A7
:102C3000202000020030000200300002B830FEF711
:102C400031FD10BD10B5202000020030000201301F
:102C500000020030FEF726FD10BD70B5026840236B
:102C60001B02013340261B0236042C3304361B02A0
:102C70003602984201D0B04203D17024A2434C687E
:102C800022434024402524022D0201340135240230
:102C90002D024434483524022D0298420BD0B04214
:102CA00009D04026360420363602B04203D0A04276
:102CB00001D0A84204D103263602B243CE68324383
:102CC0008026B2434E69324302608A68C2620A6853
:102CD0008262984203D0A04201D0A84201D1096982
:102CE0000163012141610169C90703D001694908F4
:102CF0004900016170BD10B5CB06DB0E0121046AED
:102D000099408C430462016A9A401143016210BDEC
:102D100030B58468FF252D021B021343AC430B43DF
:102D20002343836030BD826870239A430A4307219E
:102D30000A4382607047F0B5056A026A5208520081
:102D40000262436882697024A24392080C68920070
:102D50001443022295438A6840262A4340252D02C7
:102D60003602013501362D0236022C3544362D024D
:102D70003602A84209D0B04207D040273F020137AF
:102D80003F0248373F02B84206D10827BA43CF680E
:102D90001743042297433A46A84209D0B04207D0CD
:102DA00040252D0201352D0248352D02A84206D1BD
:102DB00003252D02AB434D691D438B692B434360B3
:102DC0008461496841630262F0BD70B5046A026AB9
:102DD00010239A4302624368826973252D02AA4335
:102DE0000D682D021543202294438A681201224364
:102DF00040242402013424022C342402A04208D1AD
:102E00001446CA688026B443120122434024A243D8
:102E10000FE0402424020134240244342402A0425E
:102E200007D0402424020134240248342402A04262
:102E300008D10324A402A3434C69A4001C438B695A
:102E40009B0023434360856149688163026270BDD2
:102E500070B5056A026AFF2301339A430262426831
:102E6000C3697024A3439B080C689B001C43012387
:102E70005B029D438B681B022B4340252D020135CD
:102E80002D022C352D02A84208D11D46CB68C61450
:102E9000B5431B022B430515AB430FE040252D0224
:102EA00001352D0244352D02A84207D040252D02C0
:102EB00001352D0248352D02A84208D103252D03E6
:102EC000AA434D692D0115438A6912012A434260C4
:102ED000C4614968C163036270BD30B5046A026AA7
:102EE00001231B039A4302624368C26973252D02C2
:102EF000AA430D682D0215430122520394438A68A8
:102F00001203224340242402013424022C342402DC
:102F1000A0420FD04024240201342402443424026D
:102F2000A04207D040242402013424024834240261
:102F3000A04205D10124A403A3434C69A401234367
:102F40004360C56149680164026230BD30B5036AFF
:102F5000046A6408640004628469F025AC431201C9
:102F600022430A24A3430B438261036230BD30B580
:102F7000046A036A1025AB43036283690F252D039E
:102F80001203AB431A43A0239C43090121438261EE
:102F9000016230BDF8B5040C8BB2264682B25E43A6
:102FA0000D0C1046370C5843360480190021794126
:102FB00016466E43370C36048019794126466E4317
:102FC0008919F8BD8307FF22DB0E9A408907090E95
:102FD000994000280BDB8308E0200004E4309B00CC
:102FE00000021B18186890430843186070470007D8
:102FF000000F08388308E0200004ED309B00000239
:103000001B18D86990430843D8617047F8B5482623
:1030100004463604807804363602002500280CD099
:103020002078012801D0022801D0002200E00122EE
:1030300004213046FDF7DDFCA570607900280CD036
:10304000E078012801D0022801D0002200E001220E
:1030500008213046FDF7CDFC6571207A00280CD0A0
:10306000A079012801D0022801D0002200E001222D
:1030700010213046FDF7BDFC2572E07A00281BD0F8
:10308000607A01273F03012801D0022808D00022DE
:1030900039463046FDF7ADFC00220121490207E028
:1030A0000121002249023046FDF7A3FC00223946E7
:1030B0003046FDF79EFCE572A07B00281BD0207BEC
:1030C0000127BF02012801D0022808D001210022D7
:1030D00049033046FDF78DFC0022394607E0002207
:1030E00039463046FDF785FC002201214903304670
:1030F000FDF77FFCA573607C00281BD0E07B0127D7
:10310000FF02012801D0022808D0012100228903F2
:103110003046FDF76EFC0022394607E000223946B2
:103120003046FDF766FC0022012189033046FDF799
:1031300060FC6574207D00280DD0A07C0923DB068F
:1031400001287DD002287BD00022012149031846A6
:10315000FDF74FFC2575E07D00280BD0607D012830
:103160007CD002287AD00022012189033046FDF765
:1031700040FCE575A07E00280BD0207E0121C9030C
:1031800001286DD002286BD000223046FDF731FCBB
:10319000A576607F00281BD0E07E012862D002283F
:1031A00060D0032872D000212020000200300002ED
:1031B000013000020030FEF77EFC042120200002D6
:1031C0000030000200300002B830FEF774FC657772
:1031D00026462036307800281BD0A07F01286AD0F0
:1031E000022868D003287AD0042120200002003071
:1031F0000002013000020030FEF75DFC08212020B3
:1032000000020030000200300002B830FEF753FC2C
:103210003570F07800281ED07078012876D002280A
:1032200074D003287ED0002120200002003000024C
:1032300000300002B830FEF73EFC0C21202001E0F7
:103240000AE00BE000020030000200300002B8305B
:10325000FEF731FCF570F8BD012276E7012283E725
:10326000012292E7042120200002003000020030F9
:103270000002B830FEF71FFC0021202000020030C1
:10328000000201300002003012E0FFE700212020A0
:10329000000200300002013000020030FEF70BFC9B
:1032A0000421202000020030000200300002B8306B
:1032B000FEF7AAFB8BE70821202000020030000265
:1032C00000300002B830FEF7F6FB04212020000297
:1032D0000030000201300002003012E0FFE704215C
:1032E0002020000200300002013000020030FEF712
:1032F000E2FB082120200002003000020030000222
:10330000B830FEF781FB83E700E00BE00C212020C2
:1033100000020030000200300002B830FEF7CBFBA4
:1033200000210AE0002120200002003000020030CD
:103330000002B830FEF7BFFB0C2120200002003055
:10334000000200300002B830FEF75EFB82E708B5ED
:10335000FDF78BFCFFF708FCFFF756FA2020000270
:1033600000300002003000022430FFF7D6F92020A0
:1033700000020030000200300002B830FFF706FB08
:103380002020000200300002013000020030FFF770
:103390008BFB202000020030000201300002483088
:1033A000FFF7ABFA202000020030000201300002DB
:1033B0009030FFF7B9FA20200002003000020130FF
:1033C0000002D830FFF7C9FA2020000200300002C6
:1033D000003000026430FFF764FA20200002003061
:1033E0000002003000026430FDF77BFB2020000269
:1033F00000300002013000024830FEF7BDF8002521
:103400002024240200342402003424020034012643
:103410002078002841D0E078401CC0B2E07001283C
:1034200006D002281AD0032818D0042820D033E070
:103430002020000200300002003000020230009024
:103440006378C21C411D20200002003000020230BF
:103450000002203000F023F865701DE020200002FB
:1034600000300002023000022030FFF7CFFD13E0F1
:10347000A378202212020032120200321202053218
:103480001146083120200002003000020230000204
:10349000203000F03BF8A57025702671B8E770B5B4
:1034A0000024049D002B1ED00023CE5C5B1C34192D
:1034B000DBB2E4B2052BF8D34B79A34213D10B78DE
:1034C000212B10D14B78052B0DD18C780123812C29
:1034D0000AD0822C0ED0012C01D0022C03D1137003
:1034E000C87850702B7070BDCC780A79650064196B
:1034F000025505E0CC780A796500641924186270D9
:10350000C9784A0089180818837070BD70B5002406
:10351000002B2CD0167800232125012E15D05678AB
:10352000022E24D10D704B7002238B705378CB7018
:103530005278C01C105C087100200A5C401C1219F3
:10354000C0B2D4B20528F8D310E00D704B7001233F
:103550008B705378CB705278805C087100200A5CC5
:10356000401C1219C0B2D4B20528F8D34C7170BDFA
:1035700002030405060708090A0B0C0D0E0F1010B4
:103580000102030405060708090A0B0C0D0E0F10B3
:103590000000000000000000010203040607080903
:1035A000C03500080000002024000000F4000008DE
:1035B000E435000824000020840800001001000801
:1035C00000000000000000000000000000000000FB
:1035D00000000000010000000400000000000000E6
:0435E00000127A005B
:04000005080000B13E
:00000001FF
